:1000000000800020BD0100005D2800001D280000C8
:100010001D2800001D2800001D2800001D280000CC
:100020001D2800001D2800001D2800005D2800007C
:100030005D2800001D28000009410000F14100007A
:100040005D2800005D2800005D2800005D2800009C
:100050005D2800005D2800005D2800005D2800008C
:100060005D2800005D2800005D2800005D2800007C
:100070005D2800005D2800005D2800005D2800006C
:100080005D2800005D2800005D2800005D2800005C
:100090005D2800005D2800005D2800005D2800004C
:1000A000B14C0000C14C00005D2800005D2800003C
:1000B0005D2800005D2800005D2800005D2800002C
:1000C0005D2800005D2800005D2800005D2800001C
:1000D0005D2800005D2800005D2800005D2800000C
:1000E0005D2800005D2800005D2800005D280000FC
:1000F0005D280000A94300005D280000E9440000DD
:100100005D280000294600005D2800005D280000F1
:100110005D2800005D2800005D2800005D280000CB
:100120005D2800005D2800005D2800005D280000BB
:100130005D2800005D2800005D2800005D280000AB
:100140005D280000B9B200005D2800005D280000B5
:100150005D2800005D2800005D2800005D2800008B
:100160005D280000B53000005D2800005D2800001B
:100170005D2800005D2800005D2800005D2800006B
:100180005D2800005D2800005D2800005D2800005B
:100190005D2800005D2800005D2800005D2800004B
:1001A0005D2800005D2800005D2800005D2800003B
:1001B0005D2800005D2800005D280000564B4CF2D1
:1001C000205210B51A804DF628121A8000BF00BFC9
:1001D00002F048FB514B4FF010621A60504A9A608F
:1001E000504ADA60504A136813F4807304D14F49BF
:1001F0000B604FF4A85313604D4B1A78110703D5C9
:100200001A7842F008021A704A4B4B492A221A7097
:100210004A4A4B4B8B4204D252F8040F43F8040B6A
:10022000F8E7484B484900228B4202D243F8042B9E
:10023000FAE74649464A002352F8230041F82300D2
:1002400001336F2BF8D1434B434A802103F8011B44
:100250009342FBD1414B3D4A1A60414B8A221A70AE
:10026000A3F5805324225A70A0221A709A7992071B
:10027000FCD59A79D406FCD43A4A937903F00C035E
:10028000082B384BF9D105221A7143225A719A79F9
:100290009006FCD5334A9179324B4906FBD5324A58
:1002A0004FF0817111600521516020221A709A79F6
:1002B00002F00C020C2AFAD12C4B2D4A1A602D4B5D
:1002C0002D4A1A6000225A60072243F8042C2B4A58
:1002D000C3F80C2D62B602F0B3FD144B1B68DA07AD
:1002E00005D5274802F06EFB264B274A1A60274B9C
:1002F0001B785B0609D5234C234B22689A4204D114
:100300001F4802F05FFB002323600DF0EDFC02F0BC
:10031000AFFA02F0E1F9FEE70E200540308004401C
:10032000823F04000100002B10D0034014D0034092
:1003300002D0074000E007408094FF1FB441010055
:100340002087FF1F8094FF1FF0CFFF1F0082FF1F39
:100350000000000000E400E05FE400E008ED00E0E1
:1003600000500640004006404480044004800440A1
:10037000C010050014E000E03F190100000020203B
:1003800077AE305E1CE00340A5C3945A00F00740EE
:10039000FFFFFFFFFFFFFFFFFFFFFFFFFFFFFFFF6D
:1003A000FFFFFFFFFFFFFFFFFFFFFFFFFFFFFFFF5D
:1003B000FFFFFFFFFFFFFFFFFFFFFFFFFFFFFFFF4D
:1003C000FFFFFFFFFFFFFFFFFFFFFFFFFFFFFFFF3D
:1003D000FFFFFFFFFFFFFFFFFFFFFFFFFFFFFFFF2D
:1003E000FFFFFFFFFFFFFFFFFFFFFFFFFFFFFFFF1D
:1003F000FFFFFFFFFFFFFFFFFFFFFFFFFFFFFFFF0D
:10040000FFFFFFFFFFFFFFFFFFFFFFFFDEF9FFFF23
:1004100010B5054C237833B9044B13B10448AFF33E
:1004200000800123237010BD8094FF1F0000000096
:10043000B0410100084B10B51BB108490848AFF3A3
:1004400000800848036803B910BD074B002BFBD0A0
:10045000BDE81040184700BF000000008494FF1F53
:10046000B04101008094FF1F00000000FF220270D5
:1004700000224280C2604FF0FF328260704700BFAE
:10048000012808D108B54FF6FF73994202D10248FE
:10049000FFF7ECFF08BD70479C94FF1F10B4064B9C
:1004A0001B683BB10C7848788A78DC7318745A74EE
:1004B0009B68F6E710BC7047AC94FF1F10B4064B66
:1004C0001B683BB10C7848788A781C7358739A7310
:1004D0009B68F6E710BC7047AC94FF1F30B482B045
:1004E0000E4C2268531C23608A4214DB0C4D2A6890
:1004F0000192019A0B4C2168511A4FF47A7202FB57
:1005000003F3B3FBF1F343800022044B1A602B6822
:100510000093009B236002B030BC7047B094FF1F73
:10052000ACC9FF1FB894FF1F2DE9F04383B0054607
:1005300088466B684BB102F049FC2B4B1B68C01A14
:100540006B68984203D2012302E0002300E00023FD
:10055000002BEED102F03AFC234B1860EB681BB184
:10056000A968404698478046204B1C68002C34D030
:10057000A67C6B88632B01D80023A37423685F6873
:100580006168626900238DF804308DF805308DF8BC
:100590000630B8F1000F1AD0022B18D89E4604EB93
:1005A000030C9CF80C909CF80F00B9F1000F0BD0D5
:1005B00050B1013009FB000008FB00F0000C0DF108
:1005C000080CE6440EF8040C0133DBB2E4E701AB9F
:1005D0002046B847A674A468C8E719212846FFF743
:1005E0007DFF03B0BDE8F083B494FF1FAC94FF1F00
:1005F00070B582B004460E46094B1B680093009DFF
:1006000021782046FFF790FF03F00EFD044B1B6896
:100610000193019B5B1BB342F2D302B070BD00BFDC
:10062000ACC9FF1F2DE9F04383B0054689469046CB
:100630006B684BB102F0CAFB2A4B1B68C01A6B688F
:10064000984203D2012302E0002300E00023002BA4
:10065000EED102F0BBFB234B1860EB681BB1A9681D
:10066000404698478046204B1C68A4B3A67C6B8804
:10067000632B01D80023A37423681F6862690023D9
:100680008DF804308DF805308DF80630B8F1000F84
:100690001AD0022B18D8184604EB030E9EF80CC093
:1006A0009EF80F10BCF1000F0BD051B101310CFBC3
:1006B000011108FB01F1090C0DF1080E704400F85E
:1006C000041C0133DBB2E4E701AB49462046B847DE
:1006D000A674A468C9E719212846FFF7FFFE03B0F6
:1006E000BDE8F083B494FF1FAC94FF1F4AB181B101
:1006F0004368084A92FBF1F18B4238BF0B464360D6
:10070000704721B1034B93FBF1F141607047002327
:100710004360704740420F00F8B504460F461E1E66
:1007200001DC002500E01546002E00DC164623689B
:100730009B682046984705EB45053D44656066612A
:1007400023685B6920469847012201460248FFF76B
:10075000CDFF2046F8BD00BF9C94FF1F00207047CE
:1007600008B54FF6FF710120FFF78AFE08BD00BFF4
:1007700070B4027844788578D000C0B2562303FB69
:1007800000F3C3F3072312F0800F23D112F0400FC0
:100790000DD112F0200F05D1DA43D2B2002618464F
:1007A000334641E05533D8B20023AB223CE012F08F
:1007B000200F0BD1AB2202FB00F2C2F30722C2F1E1
:1007C000AB02D2B2563BD8B200232DE00022D84370
:1007D000C0B229E012F0400F14D112F0200F0CD15A
:1007E0000022AB2606FB00F0C0F30726C6F1AB00E3
:1007F000C0B206F15503DBB216E00020DE431A4614
:10080000F3B211E012F0200F07D103F15502D2B27A
:100810000020C3F1AB03DBB206E0A3F15602D2B273
:100820000020C3F15503DBB2FF2C1FD0DCB11AB19D
:1008300004FB0222C2F3072218B104FB0000C0F33C
:1008400007201BB104FB0333C3F30723E443E4B2E3
:1008500004FB0444C4F307242244D2B22044C0B2AF
:100860002344DBB202E0FF2318461A46FF2D21D0B5
:1008700005FB05F4C4F3072615B11DB9002402E0F9
:10088000002400E00124344414F0FF040FD01AB116
:1008900004FB0222C2F3072218B104FB0000C0F3DC
:1008A00007203BB104FB0333C3F3072302E000231B
:1008B00018461A460A7048708B7070BC704700BFAB
:1008C00070B40B460024224625464BB106783544C9
:1008D0004678324486783444013B9BB20330F4E7D7
:1008E00005EB85052B01C2EBC200C2EBC00204EB95
:1008F0008404C4EB0414120A02EB132202EB142347
:1009000001EB8100184470BC704700BF2DE9F04135
:1009100088B007468846204B1C687D255CB1666818
:1009200023681B692046984781B23046FFF7C8FF0D
:100930000544A468F2E707FB05F52D0A454510D2EA
:10094000164B1B7813B301228DF80C20144A52F871
:1009500033209DF80C10137823EA010313703846F6
:1009600017E008FB07F7B7FBF5F0C7B20B4B1B7896
:1009700073B101228DF81C20094A52F833209DF8EA
:100980001C3011780B431370384602E0384600E003
:10099000384608B0BDE8F081AC94FF1FC094FF1F3B
:1009A000982A010008B50A4800F0C2FA00F0FCFCE1
:1009B00000F07AFA00F04CFC00F0A2FB01F000FB22
:1009C00001F030F901F070FC024800F0B1FA08BD06
:1009D000742601007C26010010B5A6B00446CE495D
:1009E000032000F00DFCCD4B9C4200F074813ED8FA
:1009F000A3F5AB432A3B9C4200F0A28119D8A3F592
:100A00007F639C4200F0A78109D8A3F57F639C42D5
:100A10006BD003F5FF639C4200F0B580C7E1C04B8B
:100A20009C4200F0D08003F5FF739C4200F08F8061
:100A3000BDE1BC4B9C4200F0998109D8A3F5FF634E
:100A40009C4200F0908003F2FA539C427CD0AEE1CD
:100A5000B54B9C4260D003F5EF5302339C4200F04B
:100A60004A81A3F5FF539C4240F0A1819BE0AF4B2C
:100A70009C4200F0C4801BD8A3F58F530E3B9C42D0
:100A800000F0ED800AD8A3F6F2539C4200F0C78034
:100A900003F5FF639C4200F0FE8088E1A44B9C427A
:100AA00000F0A18003F5FF639C4200F0E8807EE146
:100AB000A04B9C423CD00AD8A3F5FF639C4200F0B7
:100AC000FA8003F2FA539C4200F0B9806FE19A4B2E
:100AD0009C4215D003F5FF639C4200F05281A3F5C0
:100AE000FF539C4240F0638156E101F0F5F910B1EB
:100AF00000F078FB64E100F067FB00F027FC5FE1A9
:100B000001F06AFB002840F05B818349032000F07C
:100B100077FB01F055FA53E101F088F90246874965
:100B200068460DF0D5FE6946032000F069FB47E1F9
:100B300001F0A0F90246814968460DF0C9FE6946F8
:100B4000032000F05DFB3BE101F0BCF938E1FF233D
:100B50008DF8183000238DF819308DF81A3006A85A
:100B600001F04AF92CE110238DF82030FF238DF895
:100B700021308DF8223007A908A8FFF7F9FD07A852
:100B800001F03AF91CE120238DF82830FF238DF87D
:100B900029308DF82A3009A90AA8FFF7E9FD09A82C
:100BA00001F02AF90CE130238DF83030FF238DF865
:100BB00031308DF832300BA90CA8FFF7D9FD0BA806
:100BC00001F01AF9FCE040238DF83830FF238DF84E
:100BD00039308DF83A300DA90EA8FFF7C9FD0DA8E0
:100BE00001F00AF9ECE000238DF83C3080228DF80A
:100BF0003D208DF83E300FA801F0FEF8E0E06C23B8
:100C00008DF84430FF238DF845308DF8463010A91B
:100C100011A8FFF7ADFD10A801F0EEF8D0E07923A0
:100C20008DF84C30FF238DF84D308DF84E3012A9E1
:100C300013A8FFF79DFD12A801F0DEF8C0E086239F
:100C40008DF85430FF238DF855308DF8563014A9A7
:100C500015A8FFF78DFD14A801F0CEF8B0E093239E
:100C60008DF85C30FF238DF85D308DF85E3016A96D
:100C700017A8FFF77DFD16A801F0BEF8A0E000233D
:100C80008DF860308DF86130FF238DF8623018A840
:100C900001F0B2F894E0B3238DF86830FF238DF8AB
:100CA00069308DF86A3019A91AA8FFF761FD19A8F3
:100CB00001F0A2F884E0C6238DF87030FF238DF890
:100CC00071308DF872301BA91CA8FFF751FD1BA8CD
:100CD00001F092F874E0D9238DF87830FF238DF875
:100CE00079308DF87A301DA91EA8FFF741FD1DA8A7
:100CF00001F082F864E0EC238DF88030FF238DF85A
:100D000081308DF882301FA920A8FFF731FD1FA880
:100D100001F072F854E000BF0C2701008778FF0053
:100D2000E718FF00CD32FF00C53AFF0055AAFF00CB
:100D3000659AFF0045BAFF000FF0FF00A0260100F2
:100D4000FF238DF884308DF885308DF8863021A80A
:100D500001F052F834E0C0238DF888308DF88930E6
:100D60008DF88A3022A801F047F829E080238DF819
:100D70008C308DF88D308DF88E3023A801F03CF842
:100D80001EE040238DF890308DF891308DF8923030
:100D900024A801F031F813E020238DF894308DF869
:100DA00095308DF8963025A801F026F808E0224607
:100DB000044968460DF08CFD6946032000F020FAD6
:100DC00026B010BDB026010000B585B000F0F4FAE1
:100DD00001F0F4F900F084FF01F06EFAA0B12A4BA3
:100DE0001868B0F1FF3F0BD1284B1868284B984288
:100DF00003D003F5FF43984206D1FFF7EDFD03E072
:100E0000224B1860FFF7E8FD224B1B6813F0010F1F
:100E100013D1204801F04AFD78B11F4B1B680193A4
:100E2000019B1E4AA2FB0323C3F38F131C4A1380AA
:100E30001E235380174801F03FFD174B1B68039397
:100E4000039B164AA2FB0323C3F38F13144A118892
:100E50005B1A9BB2528893420AD30F4909680291E8
:100E600002990E48A0FB0101C1F38F110C480180CB
:100E7000934205D300F04EF801460A4800F058F8B6
:100E800005B05DF804FB00BFA8C9FF1FC894FF1F91
:100E9000C53AFF00C494FF1FACC9FF1FD34D6210B9
:100EA000CC94FF1FBC26010082B0164B1B68009338
:100EB000009901F59C510831134B1B7813F0FF0F7B
:100EC0000DD0124B1B7813F0010F0AD00D4B1B688D
:100ED0000F4A12689B1A0E2B05D8002304E000234A
:100EE00002E0002300E001233BB9064A12680192A8
:100EF000019A914202D9012300E00023002BDBD1AB
:100F000002B07047ACC9FF1F90CAFF1FA8CAFF1FDD
:100F1000E8CFFF1F10B582B001AB019301200CF0A8
:100F20000FFF04460CF014FF0198001B02B010BD27
:100F30000FB470B584B008AB53F8044B0393217819
:100F4000002900F0AC80252940F09B80651C637867
:100F5000253B532B00F2A080DFE803F08C9E9E9E81
:100F60009E9E9E9E9E9E9E9E9E9E9E9E9E9E9E9EA1
:100F70009E9E9E9E9E9E9E9E9E9E9E9E9E629E9ECD
:100F80009E9E9E9E9E9E9E9E9E9E9E9E9E9E9E33EC
:100F90009E9E9E9E9E9E9E9E9E9E722A9E529E9E5D
:100FA0009E9E9E3E9E9E9E9E9E9E7C9E479E9E33A5
:100FB000039B1A1D039219683B4801F01BFA2C464B
:100FC0006BE003990B1D0393002310220968364838
:100FD00001F0D2F92C4660E0039B1A1D03921968B8
:100FE000314801F007FA2C4657E003990B1D039393
:100FF00000230A2209682C4801F0BEF92C464CE077
:10100000039B073323F0070303F108020392D3E99C
:10101000002302210091244801F0FAF92C463CE01B
:10102000039B073323F0070303F108020392D3E97C
:101030000023082100911C4801F0EAF92C462CE01D
:10104000039B1A1D0392184802681268197890478A
:101050002C4622E0039B1A1D03921C6820460DF0CB
:101060006FFE114B1A685668024621461846B04773
:101070002C4612E00C4803681B68252198472C4633
:101080000BE00A2903D1084801F050F905E00648B1
:1010900003681B68984700E02C4601344FE704B012
:1010A000BDE8704004B070470489FF1F01281AD1C1
:1010B0004FF6FF73994216D110B584B00A4C0B4B12
:1010C00002930B4B01934FF0FF330093094B202207
:1010D0008021204604F09AFA074A0849204603F086
:1010E00055FB04B010BD70472C95FF1FA086010072
:1010F000801A0600C089FF1F1088FF1F615600007C
:1011000010B582B000230F4A13700F4A13700123E9
:1011100000933C2202210D4804F012FC18B90C483F
:10112000FFF706FF0CE0094C0121204604F0E6F928
:101130000123A3826382A376024A1370024A1370CA
:1011400002B010BD8C95FF1FD094FF1F2C95FF1F80
:10115000D0260100F8B5184804F0E0FB174B1B78C7
:101160002BB3154C0025E5812582154F154E3A46C7
:101170003146204601F0F2F8E5810823238207F189
:1011800016023146204601F0E9F8E581102323825A
:1011900007F12C023146204601F0E0F8E5811823E2
:1011A000238207F142023146204601F0D7F8024877
:1011B00004F0E0FEF8BD00BF2C95FF1F8C95FF1FCB
:1011C000D494FF1FEC26010008B5044B1B7823B113
:1011D0000022034B1A70FFF7BDFF08BDD094FF1F1C
:1011E0008C95FF1F08B5044B1B7823B10122034BDC
:1011F0001A70FFF7AFFF08BDD094FF1F8C95FF1F3B
:10120000074B1B7853B110B516231A46054C03FB48
:1012100000400DF063FDFFF79DFF10BD704700BF5C
:10122000D094FF1FD494FF1F08B54FF6FF71012023
:10123000FFF73CFF08BD00BF012807D108B54FF6F6
:10124000FF73994201D101F0C7F908BD704700BF93
:10125000F0B58BB0354B00241C605C60DC609C6199
:101260001C221A8001255D7120229A71304A9A60F1
:1012700072221A732F4A1A616FF07F425A612E4808
:10128000FFF756FE204601F0EDF90446284601F02E
:10129000E9F90546024621462848FFF749FE622C37
:1012A00026D1432D24D10023ADF82630022001F0B1
:1012B000D9F98DF82600032001F0D4F98DF8270024
:1012C000BDF826101E48FFF733FEBDF826601B2E22
:1012D00000D91C26023EB6B20024B4420BD2A51C93
:1012E000201D01F0BFF9114B58550134A4B2F4E7A9
:1012F0001448FFF71DFE0D4801888278C37890F8E6
:1013000004E04579867987680397077B046905942B
:1013100044690694007E0790049702960195CDF8E3
:1013200000E00948FFF704FE0BB0F0BD9095FF1FE9
:1013300040420F00F0B0FF00F0260100102701002E
:1013400028270100482701007827010010B50F4B1E
:1013500019880F48FFF7ECFD00240C4B1B889C42BA
:1013600007D20A4B195DA01C01F092F90134A4B216
:10137000F3E76221002001F08BF94321012001F005
:1013800087F90448FFF7D4FD10BD00BF9095FF1FFB
:10139000182801003828010008B54FF6FF71012018
:1013A000FFF74AFF08BD00BF08B50121172001F073
:1013B0004BFB08BDFFFFFFFFF0B583B0244B1B685C
:1013C0000193019A93082348A0FB03135B0940F2A1
:1013D000A46000FB13200CF033FA1F490CF088FACC
:1013E00001460CF07DF91D490CF036FB0BF026FE92
:1013F00006460F460AF070FB0022194B0BF0C0FCAA
:101400000022184B0BF06EFE04460D46304639465E
:101410000AF018FB002200230CF0F4F840B1224639
:101420002B4609A1D1E900010BF0A8FC04460D46AA
:10143000204629460CF006F90146172001F0C4FBAE
:1014400003B0F0BDAFF300800000000000E06F408B
:10145000ACC9FF1FAD794613DB0F49400080D4446F
:101460000000F03F0000604010B582B000238DF80E
:1014700000308DF801308DF80230026814688DF864
:1014800004308DF805308DF8063001AB0A46694608
:10149000A04702B010BD00BF002070474069C000E7
:1014A000704700BF704700BF01282BD14FF6FF7374
:1014B000994227D141F22F13B3F1FF3F01D0013BF5
:1014C000FAE7114B00215960FF221A735A739A737D
:1014D000DA731A745A7401229A74596199600B4B29
:1014E0001B6813B9084A094B1A60094B1B680BB1FA
:1014F000054A9A60044B064A1360064A1A600022A5
:101500005A629A61704700BF48C9FF1FAC94FF1F21
:10151000BC94FF1F5828010070B58EB0847C0091E8
:101520000192029219788DF8121059788DF81310E3
:101530009B788DF81430012C3FD135490B7801335D
:1015400003F007030B7013F0010F01D1002500E039
:10155000802513F0020F01D045F0400513F0040F71
:1015600001D045F020051035EDB20021022931DC13
:101570000EAB0B4413F8264C34B14FF4807393FB3D
:10158000F4F30133DBB200E000230EAC661806F87A
:10159000293C03FB0554C4F3072406F82C4C24B162
:1015A000013C0EAE0E4406F82C4C23B1013B0EACB0
:1015B0000C4404F8293C0131D8E700238DF81130A0
:1015C0008DF810308DF80F308DF80E308DF80D300D
:1015D0008DF80C3003238DF8153000231C46072BA3
:1015E0000FDC991D0EAD05EB810141F8384C01214E
:1015F000994011F0FF0F02D002EB42010C4401337D
:10160000EDE703689B69694698470EB070BD00BF5F
:10161000AC95FF1FF0B585B005460C464E68836952
:10162000D3B906EB4603DF0038460CF089FBE861CE
:1016300038460CF085FB2862012001F041F907468D
:1016400095F824300093EB692A6A314604F0EEFDE8
:10165000AF61384604F000FEEA696B6A13F0020FCE
:1016600000F00C81A368002B40F3148200210729AD
:1016700014DC8B1D54F823302068C35C1BB1207B25
:1016800083FA50F3DBB2A07C00FB0333C3F30723E0
:1016900004A8084400F8083C0131E8E702980399DF
:1016A00081EAD11303F0AA13594081EAC31383EAF4
:1016B00093314CF6CC4631404B4083EA813380EA8B
:1016C000D01101F0AA11484080EAC11181EA91309D
:1016D0003040414081EA803103F0F036080900F0E3
:1016E0000F3030431B0103F0F03301F00F310B4397
:1016F000D371190A9171190C51711B0E1371D070AD
:10170000030A9370030C5370000E10700021072918
:1017100015DC8B1D54F8233001332068C35C1BB1EA
:10172000607B83FA50F3DBB2E07C00FB0333C3F34E
:10173000072304A8084400F8083C0131E7E70298B1
:10174000039981EAD11303F0AA13594081EAC31324
:1017500083EA93364CF6CC473E40734083EA8633A7
:1017600080EAD01606F0AA16704080EAC61181EA17
:1017700091303840414081EA803103F0F036080969
:1017800000F00F3030431B0103F0F03301F00F3154
:101790000B43D373190A9173190C51731B0E1373F6
:1017A000D072030A9372030C5372000E1072002160
:1017B000072915DC8B1D54F8233002332068C35CE5
:1017C0001BB1A07B83FA50F3DBB2207D00FB033317
:1017D000C3F3072304A8084400F8083C0131E7E7F5
:1017E0000298039981EAD11303F0AA13594081EAC0
:1017F000C31383EA93364CF6CC473E40734083EAEA
:10180000863380EAD01606F0AA16704080EAC61128
:1018100081EA91303840414081EA803103F0F0366E
:10182000080900F00F3030431B0103F0F03301F0E2
:101830000F310B43D375190A9175190C51751B0E95
:101840001375D074030A9374030C5374000E107450
:101850001832E37B217B5B1A2373237C617B5B1A49
:101860006373637CA17B5B1AA37394F915302168C1
:101870000B442360A368013BA360F3E6A368002B3D
:1018800040F308810021072915DC8B1D54F8233013
:1018900001332068C35C1BB1607B83FA50F3DBB279
:1018A000E07C00FB0333C3F3072304A8084400F8DB
:1018B000083C0131E7E70298039981EAD11303F06C
:1018C000AA13594081EAC31383EA93364CF6CC47F6
:1018D0003E40734083EA863380EAD01606F0AA16AB
:1018E000704080EAC61181EA91303840414081EA77
:1018F000803103F0F036080900F00F3030431B014F
:1019000003F0F03301F00F310B43D371190A9171D9
:10191000190C51711B0E1371D070030A9370030CD4
:101920005370000E10700021072914DC8B1D54F831
:1019300023302068C35C1BB1207B83FA50F3DBB2F9
:10194000A07C00FB0333C3F3072304A8084400F87A
:10195000083C0131E8E70298039981EAD11303F0CA
:10196000AA13594081EAC31383EA93364CF6CC4755
:101970003E40734083EA863380EAD01606F0AA160A
:10198000704080EAC61181EA91303840414081EAD6
:10199000803103F0F036080900F00F3030431B01AE
:1019A00003F0F03301F00F310B43D373190A917335
:1019B000190C51731B0E1373D072030A9372030C2C
:1019C0005372000E10720021072915DC8B1D54F88C
:1019D000233002332068C35C1BB1A07B83FA50F331
:1019E000DBB2207D00FB0333C3F3072304A80844C4
:1019F00000F8083C0131E7E70298039981EAD11326
:101A000003F0AA13594081EAC31383EA93364CF6D4
:101A1000CC473E40734083EA863380EAD01606F016
:101A2000AA16704080EAC61181EA913038404140E0
:101A300081EA803103F0F036080900F00F303043BE
:101A40001B0103F0F03301F00F310B43D375190A7A
:101A50009175190C51751B0E1375D074030A93748C
:101A6000030C5374000E10741832E37B217B5B1A55
:101A70002373237C617B5B1A6373637CA17B5B1A9A
:101A8000A37394F9153021680B442360A368013BCC
:101A9000A360F3E6A86904F0A1FD05B0F0BD00BFA6
:101AA00030B58FB0847C0091019202921A788DF843
:101AB00012205A788DF813209B788DF81430012C61
:101AC0003FD1304A1378013303F00703137013F04A
:101AD000010F01D1002400E0802413F0020F01D097
:101AE00044F0400413F0040F01D044F020041034FB
:101AF000E4B20022022A31DC0EAB134413F8261C98
:101B000031B14FF4807393FBF1F30133DBB200E0AA
:101B100000230EA98D1805F8293C03FB0441C1F3ED
:101B2000072105F82C1C21B101390EAD154405F82B
:101B30002C1C23B1013B0EA9114401F8293C0132B0
:101B4000D8E700238DF811308DF810308DF80F3064
:101B50008DF80E308DF80D308DF80C3000238DF897
:101B60001530072B08DC9A1D0EA901EB820200211B
:101B700042F8381C0133F4E703689B6969469847CB
:101B80000FB030BDAC95FF1F30B583B01E4CA368BD
:101B90001E4D1F4AEA60AB60A3792B7023691A0CB3
:101BA0008DF800201A0A8DF801208DF80230694660
:101BB0002846FEF783FC63691A0C8DF804201A0A84
:101BC0008DF805208DF8063001A92846FEF766FC41
:101BD0006279104B1A70A2780F4B1A70E2785A7023
:101BE00022799A70217B0D48FFF7A2F9237B00210F
:101BF0000B4A5162722B04D0672B02D10222084B90
:101C00005A6203B030BD00BF9095FF1F9C94FF1F28
:101C10000D0900001588FF1FB095FF1F74280100F3
:101C200048C9FF1F00B583B00E4B1B680193019A92
:101C30000D4B1A6000230D4A13600D4A13700D4AB4
:101C400013600D4A137040F226220C490C48FEF72F
:101C500063FD40F226220B4B1A80FFF795FF03B07D
:101C60005DF804FBACC9FF1F78C9FF1F44C9FF1F03
:101C700072C9FF1F74C9FF1F9C94FF1FB495FF1FFB
:101C800048C9FF1F70C9FF1F00B589B0104B1A6803
:101C900001321A600F4B1B68009300990E4B1B68B2
:101CA00003F57A738B4210D20C4902A80CF010FE97
:101CB00002A90220FFF7A4FA0022054B1A60054B87
:101CC0001B680193019A044B1A6009B05DF804FB8C
:101CD00074C9FF1FACC9FF1F78C9FF1F8828010006
:101CE00030B585B0394B1B785BB98DF808308DF86D
:101CF00009308DF80A303648027802A9FEF792FCC6
:101D000061E0344B1B788BB1334B1B6803F59C535C
:101D10000833324A12680192019A934253D8002242
:101D20002C4B1A702E490320FFF76AFA2D4B1B78B3
:101D30002BB9274802782C49FEF774FC43E00025B4
:101D4000072D1EDC0024294B19888C4217DA01FB71
:101D5000054101EB4101264B1B7803EB451323445E
:101D60008DF80C30C0238DF80D30FF238DF80E3028
:101D7000204B194403A8FEF7FBFC0134E3E70135CF
:101D8000DEE70024072C14DC002294420FDB174B03
:101D90001B8804FB0323174803EB4303C118652585
:101DA000C55443234B7021238B700132EDE701347E
:101DB000E8E70F4A13780133137001210448FEF756
:101DC00017FCFFF761FF05B030BD00BF1488FF1F8F
:101DD0009C94FF1F72C9FF1F44C9FF1FACC9FF1F9E
:101DE000982801001588FF1FB095FF1F70C9FF1FBD
:101DF00073C9FF1FB495FF1F0022094B1A700178A9
:101E0000084B19704178597081789970064B5A7156
:101E100002789A704278DA7082781A71704700BF3F
:101E20001588FF1FB095FF1F9095FF1F0F4B187867
:101E3000802801D9203010E0402801D910300CE072
:101E4000202801D9083008E0102801D9043004E026
:101E5000082801D9023000E00130FF2800D9FF2016
:101E6000C0B2024B1870024B987170479C94FF1FD0
:101E70009095FF1F114B187801281AD9082802D80D
:101E80000138C0B215E0102802D80238C0B210E004
:101E9000202802D80438C0B20BE0402802D8083805
:101EA000C0B206E0802802D81038C0B201E0203865
:101EB000C0B2024B1870024B987170479C94FF1F80
:101EC0009095FF1F0123024A1370024A5371704715
:101ED0001588FF1F9095FF1F024B187880F00100B6
:101EE000187070471488FF1F00B583B0094B1B683A
:101EF0000193019A084B1A60084B1B7833B90122F1
:101F0000064B1A7006490320FFF77AF903B05DF813
:101F100004FB00BFACC9FF1F44C9FF1F72C9FF1FEC
:101F2000AC280100F0B583B004461C4B1A888A42E5
:101F300029D00D461A48FEF7FBFFAEB2194B9B693C
:101F4000FBB1184B986904F031FB0028F9D1154D0D
:101F50006E610121A86900F0B7FC012000F0B0FC1F
:101F6000074695F824300093EB692A6A314604F05D
:101F70005DF9AF61384604F06FF931460A48FEF763
:101F8000D7FF064B1E80054B188804FB00F000EBC2
:101F90004000064B184403B0F0BD00BF70C9FF1FDE
:101FA000C428010048C9FF1F04290100B495FF1F80
:101FB00008B54FF6FF710120FFF776FA08BD00BFA4
:101FC00070B5AAB000F03AF90A2004F0D5FC6B49CC
:101FD0000020FFF715F96A4B1B680293029C04F579
:101FE0009C540834664B1B680393039B9C4205D9A1
:101FF00004F0C8FC022803D1012302E0002300E022
:1020000000231BB10A2000F005FFEBE704F0BAFC47
:1020100002280FD15B48FEF78BFF02225A4B1A7041
:102020005A490020FFF7ECF8594B19680320FFF7D5
:10203000E7F8A0E05748FEF77BFF4FF47A624EF6D0
:102040006021554804F054FBE8B904F0A9FC50B9EC
:102050005248FEF76DFF01224B4B1A705049002089
:10206000FFF7CEF887E04F48FEF762FF0324464BA8
:102070001C704D490020FFF7C3F8454B19682046F6
:10208000FFF7BEF877E00AA804F042FD9DF82C4067
:102090000CA804F03DFD9DF835500EA804F038FD65
:1020A0009DF83E6010A804F033FD9DF84730019381
:1020B00000962B4622463D4904A80CF009FC04A9D1
:1020C0000020FFF79DF812A804F022FD9DF84C4077
:1020D00014A804F01DFD9DF8555016A804F018FD35
:1020E0009DF85E6018A804F013FD9DF8673000931A
:1020F00033462A4621462E48FEF71AFF1AA804F056
:102100007FFD9DF86C401CA804F07AFD9DF8755089
:102110001EA804F075FD9DF87E6020A804F070FDF7
:102120009DF88730009333462A4621462148FEF722
:10213000FFFE22A804F0DCFD9DF88C4024A804F0EA
:10214000D7FD9DF8955026A804F0D2FD9DF89E601D
:1021500028A804F0CDFD9DF8A730009333462A4609
:1021600021461548FEF7E4FE08F0A2FB08F0FCFC4F
:102170000422054B1A702AB070BD00BF2829010047
:10218000ACC9FF1F402901007CC9FF1F5C29010069
:102190001888FF1F7029010080C9FF1F80290100D6
:1021A00098290100AC290100BC290100CC290100BB
:1021B000DC290100FC2901001C2A010008B5054B9F
:1021C0001B78042B05D108F087FC08F09BFE04F077
:1021D000F9FB08BD7CC9FF1F034B1878042814BF06
:1021E00000200120704700BF7CC9FF1F10B472B6E9
:1021F00041240D4B1C70013B18708020063B187069
:102200000A4B1B7813F0800FFAD0094B1B788B54C4
:10221000531C08480078C8540232074B1B788B5473
:1022200062B610BC704700BF0700024000000240C9
:102230000A000240090002400800024030B58BB09D
:102240000F4C002221460E20FFF7D0FF032221462B
:102250000F20FFF7CBFF22786378A178E07825790B
:1022600064790394029501900091064904A80CF04A
:102270002FFB04A90120FEF7C3FF0BB030BD00BF48
:1022800080C9FF1F542A0100012809D108B54FF663
:10229000FF73994203D10321024808F07FFE08BD75
:1022A000704700BFA4C9FF1F08B5024808F07EFEB2
:1022B00008BD00BFA4C9FF1F08B50849084808F0B9
:1022C00007FF40B1054B9A68064B1A60044808F0B6
:1022D000A7FE012008BD002008BD00BF88C9FF1F60
:1022E000A4C9FF1FA8C9FF1F08B54FF6FF71012041
:1022F000FFF7CAFF08BD00BF00207047704700BF4E
:1023000079B1F8B505460B460024561E5AB12A6825
:1023100012685F1C197828469047044432463B46B1
:10232000F3E7002070472046F8BD00BF00B583B03A
:10233000054B1B88ADF8043003685B68022201A9D5
:10234000984703B05DF804FB782A010010B51446E5
:1023500003685B689847204610BD00BF0EB400B507
:1023600082B003AA52F8041B01920EF00FFA02B0D9
:102370005DF804EB03B07047F0B58BB022B9036889
:102380001B68C9B2984732E01646012A00D10A26D6
:1023900021B930228DF82520212419E02124374647
:1023A000B1FBF6F206FB1212D2B22546092A02D878
:1023B0003032D2B201E03732D2B20DF1280E75447C
:1023C00005F8242CB1FBF7F111B1013CE4B2E6E7CA
:1023D00033B1013CE4B20AAB23442D2203F8242C90
:1023E00003685B68C4F1220201A9214498470BB03D
:1023F000F0BD00BF08B5002902DA49422D2300E0F4
:1024000000230A22FFF7B8FF08BD00BFFFFFFFFF50
:102410002DE9F04F85B00746164698469DF838B02E
:1024200032464346304641460BF0F6F838B13B6839
:102430005B6803225C49384698478246AAE028F048
:1024400000444FF0FF32594B304621460BF0E4F880
:1024500048B94FF0FF32554B304621460BF0BEF8DD
:1024600008B9012300E000233BB13B685B6803220D
:102470004F493846984782468CE04FF060424D4BBA
:10248000304641460BF0BEF838B13B685B6803222A
:1024900049493846984782467CE04FF06042474BB6
:1024A000304641460BF090F838B13B685B68032238
:1024B00041493846984782466CE000220023304666
:1024C00041460BF081F818B108F10048012500E001
:1024D0000025002400203A495C4507D230A3D3E907
:1024E00000230AF0FFFD0134E4B2F5E702460B4693
:1024F000304641460AF044FC804689460BF0CAF853
:1025000004460AF079FD02460B46404649460AF069
:1025100035FC804689462B460A2221463846FFF77D
:102520002BFF8246BBF1000F34D02E238DF80030F4
:10253000BBF10F0F01D94FF00F0B01240BF1FF3549
:10254000EDB2BBF1000F1FD000221E4B40464946A2
:102550000AF0C8FD804689460BF09CF8C0B2661CA4
:10256000F6B204AB1C4400F1300304F8103C0AF04E
:1025700053FD02460B46404649460AF0FFFB8046A3
:102580008946AB463446D9E73B685B6822466946D4
:1025900038469847504605B0BDE8F08FAFF300804D
:1025A000000000A09999B93F7C2A0100FFFFEF7F4E
:1025B000802A0100FFFFEF41842A0100FFFFEFC1E5
:1025C0000000E03F00002440024B1B7813F0010F95
:1025D000FAD070470100024010B584B01C4B6C4625
:1025E000186859689A68DB680FC41A4B1B7813F097
:1025F000020F25D0184B1B7813F0700301D0164A38
:1026000013708022154B1A700022033B1A7033227C
:1026100007331A700322013B1A7072B66B4643F0FF
:1026200001030D4C2046984762B6237813F07003DF
:1026300006D023700AE00133094A934201D905E02C
:102640000023044A127812F0010FF4D004B010BD38
:10265000882A0100010002400000024007000240F9
:10266000400D0300B0F5006F0DD210B50446074BC6
:102670001B7813F0010F01D1FFF7AEFF04F1A0505A
:102680000078C0B210BD0020704700BF01000240BA
:10269000B0F5006F1AD238B50D4604460C4B1B78C6
:1026A00013F0010F01D1FFF797FF04F1A050037859
:1026B000DBB2AB4209D0074B1B7813F0700301D09B
:1026C000044A13700570FFF77FFF38BD704700BFE5
:1026D000010002400000024008B5FEF763F9FEF772
:1026E00073FB01F0A1FCFAE7844641EA000313F012
:1026F00003036DD1403A41D351F8043B40F8043B09
:1027000051F8043B40F8043B51F8043B40F8043BCB
:1027100051F8043B40F8043B51F8043B40F8043BBB
:1027200051F8043B40F8043B51F8043B40F8043BAB
:1027300051F8043B40F8043B51F8043B40F8043B9B
:1027400051F8043B40F8043B51F8043B40F8043B8B
:1027500051F8043B40F8043B51F8043B40F8043B7B
:1027600051F8043B40F8043B51F8043B40F8043B6B
:1027700051F8043B40F8043B403ABDD2303211D30B
:1027800051F8043B40F8043B51F8043B40F8043B4B
:1027900051F8043B40F8043B51F8043B40F8043B3B
:1027A000103AEDD20C3205D351F8043B40F8043B0B
:1027B000043AF9D2043208D0D2071CBF11F8013B09
:1027C00000F8013B01D30B8803806046704700BFCF
:1027D000082A13D38B078DD010F003038AD0C3F1DE
:1027E0000403D21ADB071CBF11F8013B00F8013BC0
:1027F00080D331F8023B20F8023B7BE7043AD9D37F
:10280000013A11F8013B00F8013BF9D20B78037053
:102810004B7843708B7883706046704708B50E4BD9
:102820001B6813F4802F01D000F044FC0A4B1B6896
:1028300013F4806F01D001F0B7FD074B1B6813F450
:10284000006F01D001F050FE034B1B6813F4805F52
:10285000E5D001F0E9FEE2E73480044008B5FFF777
:10286000DDFF00BF1022014B1A8070470020054099
:10287000704700BF08B50B4B1B6880B16A4618183B
:10288000A2F58052904206D30BF028FA0C23036085
:102890004FF0FF3008BD034A1060184608BD1846C7
:1028A00008BD00BF1C88FF1FFEE700BF0078B0FA1C
:1028B00080F04009704700BF01230370704700BFDC
:1028C00008B50BF03DFA08BD08B50BF041FA08BD9C
:1028D00070B40024B0FBF2F302FB130326460D197B
:1028E000092B02D83033DBB201E03733DBB22B7077
:1028F000B0FBF2F008B10134ECE7013600238B5550
:1029000005E0CA5C085DC8540A550133013C9C428D
:10291000F7DC084670BC7047704700BF1030024BB0
:1029200043F82010704700BF0082FF1F1E4B03EBCF
:10293000C000426802F14043A3F592237C2B19D9D1
:1029400002F14043A3F594237C2B15D902F14043B7
:10295000A3F596237C2B11D902F14043A3F59823CC
:102960007C2B0DD902F14043A3F59A237C2B09D986
:10297000002108E00D4906E00D4904E00D4902E0A0
:102980000D4900E00D4971B1C2F3840072B61368BD
:1029900023F0877323F4803343F080731360084B74
:1029A00041F8203062B67047982A01002088FF1F46
:1029B0005888FF1FA888FF1FD888FF1FF888FF1FAF
:1029C00019290000044B00221A6004490A60044AD5
:1029D000106010221A60704714D0034004D00340E6
:1029E00000D0034021281ED80F4B53F8303093F805
:1029F000802212F0FF0F08D019B1012283F8802045
:102A00007047012283F800217047074B03EBC00099
:102A1000436821B11A6842F003021A6070471A68CD
:102A200022F002021A607047982A0100212806D875
:102A3000044B53F8303093F80002C0B270470020C6
:102A4000704700BF982A0100212835D81B4B03EBA3
:102A5000C0035B68012901D0042914D1174A52F838
:102A60003020012082F880024FF4A2721A600429FB
:102A700004D11A6842F020021A6070471A6822F0E6
:102A800020021A6070470D4A52F83020002082F868
:102A9000800219B94FF480721A607047022903D17D
:102AA00040F203121A607047032903D14FF4817278
:102AB0001A60704700221A60704700BF982A010010
:102AC00070B5212868D8042A66D8DFE802F0070923
:102AD000050B03000B2306E00A2304E0082302E0B1
:102AE0000C2300E009230D461B0443F080762B4B9A
:102AF00003EBC0035C68236813F4E06F02D100218C
:102B0000FFF7A2FF26495720FFF708FF2549582065
:102B1000FFF704FF24495920FFF700FF23495A20FB
:102B2000FFF7FCFE22495B20FFF7F8FE04F140436B
:102B3000A3F592237C2B19D904F14043A3F59423E8
:102B40007C2B15D904F14043A3F596237C2B11D996
:102B500004F14043A3F598237C2B0DD904F14043A5
:102B6000A3F59A237C2B09D9002208E0114A06E03C
:102B7000114A04E0114A02E0114A00E0114A5AB138
:102B8000C4F3840172B6236823F47023236042F8EF
:102B900021503343236062B670BD00BF982A010004
:102BA000E187FF1FB187FF1F8187FF1F5187FF1F2D
:102BB0002187FF1F2088FF1F5888FF1FA888FF1F3D
:102BC000D888FF1FF888FF1F10B528280FD16F4B3A
:102BD0001B780B2B03D8C3F10C03994003E00C2B9B
:102BE00001D90C3B1941084601F0AEFB10BD04466B
:102BF000664B187801238340002908DC0021204619
:102C0000FFF7F0FE01212046FFF71EFF10BD0A4628
:102C10008B4208D801212046FFF7E4FE012120461F
:102C2000FFF712FF10BDE31EDBB2012B06D8584B95
:102C30001B6803FB011323FA00F210E0202C01D0E3
:102C4000192C06D1534B1B6803FB022323FA00F215
:102C500005E0514B1B6803FB011323FA00F2E31E4E
:102C60001D2B00F28780DFE803F05F68553785850C
:102C7000232D858585858585858585414B0F19851E
:102C80007B85858585858571444B1A6040F2444279
:102C900003F5973303F5FA731A6010BD404B1A60C1
:102CA00040F2444203F5973303F5F8731A6010BD00
:102CB0003C4B1A6040F2444203F5973303F5F67338
:102CC0001A6010BD384B1A6040F2444203F5973346
:102CD00003F5F4731A6010BD344B1A6040F244429D
:102CE00003F59F3303F5F0731A6010BD304B1A6083
:102CF00040F2444203F59F3303F5EE731A6010BDB2
:102D00002C4B1A6040F2444203F59F3303F5EC73F9
:102D10001A6010BD284B1A6040F2444203F59F33FD
:102D200003F5EA731A6010BD244B1A604FF4517218
:102D300003F5803320331A6010BD214B1A604FF425
:102D4000517203F580331C331A6010BD1D4B1A609D
:102D50004FF45172A3F5DB23A3F5F9631A6010BD9C
:102D6000194B1A604FF45172A3F5DB23A3F2CC7315
:102D70001A6010BD7F29D4BF002101212046FFF732
:102D800031FE01212046FFF75FFE10BD0089FF1FC5
:102D90000890034008800B400880034010800340E7
:102DA0001880034020800340288003403080034087
:102DB0003880034040800340488003401090034027
:102DC0001890034010800B4018800B4072B60D4BDA
:102DD0001B680D4A12680D49096862B611F0806FD0
:102DE00002D0322B00D90132C3F58C3303F23F13EA
:102DF0000748A0FB03131B094FF47A7000FB023055
:102E0000704700BF18E000E0ACC9FF1F04ED00E010
:102E1000398EE33838B50546FFF7D8FF044625B9A3
:102E200038BD013D0AD004F57A74FFF7CFFF001BCF
:102E3000B0F57A7FF5D201F0F7F8F6E738BD00BFBC
:102E400010B5274B4FF400021A604FF080721A60E1
:102E50004FF000721A604FF080621A604FF000620B
:102E60001A6000201F4B186048F6FF710433196088
:102E700028231D4A13600832136008321360083299
:102E8000136008321360083213600832136008328E
:102E900013600922154C226004F58054043420602C
:102EA000043421600434236008342360143C22601D
:102EB00004F5FE24043420600D4801600D490B60C8
:102EC00008310B600C4B1A6001F0A2F91920FFF7D2
:102ED000A1FF00F059FE40F21310FFF79BFF10BD59
:102EE00008E100E0048003400C80034000800340C0
:102EF00008800B400C800B4000800B40431E032BCE
:102F000014D872B60A4951F8230068B170B4094C5C
:102F1000058834F81320466841F82360521B24F8D2
:102F2000132062B670BC704762B6704700207047CD
:102F300008CAFF1FD8CFFF1F013803280BD872B66D
:102F4000074B53F8203043B100205B680130002B61
:102F5000FBD162B67047002070471846F9E700BF02
:102F60005CCAFF1F30B472B62B4A13781D0706D512
:102F70002A4B196A002936D0996A002941D0537822
:102F80001C0706D5254B196C00293ED0996C0029E9
:102F900039D09378190705D5204B196E002936D002
:102FA000996E89B1D3781B0707D51C4BD3F88020C5
:102FB0007AB3D3F8882011213AB162B6184B0022B7
:102FC0001A7030BC00F092BE0D21154C154D2278C0
:102FD00043F8315003EBC1030830013A58602270C6
:102FE00062B630BC704704220D4C0F4D217843F877
:102FF000325003EBC20308304A1E5860227062B69A
:10300000EFE70521E1E70921DFE70822ECE70C22E1
:10301000EAE71022E8E700BFD02B01000080FF1F85
:1030200085CAFF1FC800400088004000421E032AD6
:103030001FD81C4B800040F0020030B403EBC000EE
:1030400072B6194CA35C032B1CD8DFE803F0021303
:103050001618032501F10803436010F0080F0988D2
:10306000A55414BFC823882343EA0143036062B612
:1030700030BC704708300225ECE70525EAE7083048
:103080000425E7E7094B53F8220038B1084B53F801
:103090002200416043F8221062B6E9E743F82210AB
:1030A000034BF7E70080FF1F94CAFF1F5CCAFF1F96
:1030B0006CCAFF1F2DE9F04FDFF810B3DFF810A343
:1030C00087B046E0AC4F4FEA930807EBC809013ED2
:1030D000D9F8042003F00803F6B2A2F1080003F0C7
:1030E000FF04002B40F0048157F838301B0C99B2D4
:1030F00022F8081C002B00F0F280A04D22F8064CAC
:1031000042F8044C55F82630002B00F0C7829C4D45
:1031100055F82630586032F8081C9A4C45F82600BD
:1031200034F81630194424F8161000F0BFFD0028BA
:1031300000F0AD82944A954B19F0080F00F1080099
:1031400018BF1346C9F8040047F8383008238BF835
:1031500000309BF80040E4B261071AD58C4B1B7815
:10316000A3B18C490A7802F0FF0322B1013BDBB224
:103170000B7003B900BE88490A7802F0FF032AB138
:10318000013BDBB20B70002B00F0578204238BF85D
:10319000003004F0080303F0FF02002B00F0CC80A5
:1031A0009AF80030DBB21E098CD19C08DFF8C89178
:1031B00059F8342009EBC401C2F38302013A49688B
:1031C0000C2A00F28880DFE802F07C7C8686868606
:1031D00086864786868607000868704D4A68704F65
:1031E000704E286081B240F28160674B6A604FF098
:1031F000010E0022814249F834303A60C9F81020AB
:10320000C9F8182086F800E05B4C00F2E380B1F5C5
:10321000D06F80F04683B1F5817F00F0FC8200F230
:103220008D82802900F07783822940F0FA82A98874
:1032300001F07F01042900F2F4825B485B4C8900B5
:103240000844227062700278930740F1588484F831
:1032500000E04FF0020E42E3514F3A6832B3544B54
:10326000504E5449188834780D784028864645F0E9
:10327000020828BF4FF0400E002C84F00104347087
:10328000CEEB00000CBF8824C82409EBC80680B22E
:1032900085F0010544EA0E447260188049F8384010
:1032A00072440D70002800F045813A603B4B1A884B
:1032B000B2F5A06F0FD100219A7859703E4B1A7069
:1032C00009E0364A108842F22102904200F037812C
:1032D0002D4A49F83420394A0123137036E72A4A27
:1032E0002A4B19F0080F18BF134647F838302DE75E
:1032F00000F0FCFC324A334952F82630002B00F033
:10330000D18158688C5D42F8260003F10802C9F8A3
:103310000420032C05D8DFE804F02C022926022221
:103320008A551A8819F0080F0CBF8823C82343EA6E
:10333000024347F8383009E7E00700F181812106B0
:1033400000F1F281A20706D51F4A20491378022016
:10335000DBB213700870E30602D51C4B10221A7002
:1033600007B0BDE8F08F04228A55DAE705228A55B6
:10337000D7E703228A55D4E70080FF1F08CAFF1F42
:10338000B4C9FF1FD8CFFF1FC8004000880040000D
:1033900090CAFF1F19CAFF1F98CAFF1F7CCAFF1FD0
:1033A000B0C9FF1F18CAFF1FC020074088CAFF1FEF
:1033B000C4C9FF1F84CAFF1F9820074094200740FC
:1033C0005CCAFF1F94CAFF1F882007408020074067
:1033D0009020074042F22100814200F02A8100F251
:1033E000D880B1F5086F00F07682B1F5106F40F02B
:1033F0001882226AB349A8780870120600F13A834D
:10340000D9F82820B049130600F10C83D9F83020F0
:10341000AD49150600F10183D9F83820AA491406F0
:1034200000F1F682D9F84020A749100600F14A833E
:10343000D9F84820A449120600F13F83D9F850205A
:10344000A149130600F13483D9F858209E49150686
:1034500000F12983D9F860209B49140600F11E83EE
:10346000D9F868209849100600F11383D9F8702024
:103470009549120600F10883D9F87820924913067D
:1034800000F1FD82D9F880208F49150600F13183C3
:10349000D9F888208C49140600F12583D9F89020AA
:1034A0008949100600F11983D9F898208649120637
:1034B00000F10D838548864A864901908648874DEC
:1034C000874C049700230596029580460F461646C2
:1034D0001D460394306828B1446800F007FC20467C
:1034E000002CF9D100233360029B38681A46002370
:1034F00042F8253028B1446800F0F8FB2046002C43
:10350000F9D100223A60019A98F800301146002261
:1035100041F8042B039A0191023B4FF0000122F87D
:103520001510032B00F22B81DFE813F07001250149
:1035300070012501BEF1400F18BF0022B5E6694AAF
:103540000D784878157050708D78C8789570D07067
:1035500010680D79157186284D79897955719171A9
:1035600000F09B816049614E0A78307882F0010555
:10357000002842F002020D700CBF8821C82149F8D2
:10358000321009EBC20280F001000021307051605E
:103590009EE642F22120814240F0CB81544B554CB3
:1035A0005549A8781D682560CDF804E00870002012
:1035B00002908046844604464B490D7845F0020E41
:1035C00009EBCE030393019B002B039B5C600CBFB4
:1035D0008824C82444EA080385F0010449F83E30F1
:1035E00032700C70DFF8E0E0404BDFF8FC80002820
:1035F00040F01E81BCF1400F1BD144F0020C09EBDE
:10360000CC03029CDFF8C0E05C60002A40F0268119
:10361000020442F088029DF804304EF83C20044435
:1036200033700D702346402803D10020334A3B609D
:103630001080334A012313704DE600F0D1FCA5E55C
:10364000214B2F4828491A614FF0020E80F800E004
:103650002C4F0A702C49196099602C4E2C4D2D4C22
:103660009A610D213970FF213170DFF8B8E02970BF
:103670002270294D294A8EF800109F27012406F850
:10368000047C5D600470DA6007B0BDE8F08F244A06
:1036900047F8380013780133137057E545F82600D2
:1036A0000E4D3AE58B5D032B00F2F08001A252F83B
:1036B00023F000BF4D3100004D3100007137000094
:1036C0006B37000090CAFF1F0080FF1F6CCAFF1FEE
:1036D00008CAFF1F5CCAFF1F94CAFF1FB4C9FF1F9F
:1036E000D8CFFF1FE0CFFF1F84CAFF1F18CAFF1FDC
:1036F000ACC9FF1FE8CFFF1FA8CAFF1FC4C9FF1F27
:1037000094200740C02007408800400088200740E0
:103710008020074098200740C8C9FF1F1CCAFF1F10
:1037200085CAFF1F8C200740C149C24B80220D2053
:1037300008701A70A2077FF50EAE05E640F202325D
:10374000914240F0EE80A98801F07F01042968D8F9
:103750006A88002A65D1B648CDF804E0890008449B
:10376000017841F00201017021E701238B55EDE45E
:1037700000238B55EAE44FF0010388F8003001354F
:10378000042D06F1040607F1040708F101087FF48F
:10379000A1AEA94CA94B2278A94D049F059E0021FA
:1037A00029701A70130700F105816278A549DFF8C6
:1037B000A0820A7010074FF00001C9F83010C9F854
:1037C000381000F1E080A049A2780A700021C9F801
:1037D0005010C9F858101107DFF8748200F1018108
:1037E000E2789A499A4C0A7000211207C9F87010C1
:1037F000C9F8781000F1B08033780193002183F08C
:103800000102C9F89010C9F89810D0E64FF00003F3
:1038100088F80030B3E7A98801F07F01042940F25D
:103820008D80834A0F2313708A4A0123137052E557
:1038300040287FF6E2AE44F002040EEBC401029E83
:103840004E60BAB19DF80410834A1970334640386F
:1038500088F8005040334EF83420E7E69DF80430F5
:1038600033700204029B0D7042F0C80203444EF80C
:103870003C20D8E69DF804101970029B774A88F81E
:103880000050403840334EF83420CFE619F0080F8E
:103890000CBF022303238B5558E4714A0F2111708A
:1038A00060E6704A5468002CBBD06888B5F804E024
:1038B00003E00C325468002CB3D013888342F8D153
:1038C00053887345F5D1000A03280CBF94F800E033
:1038D000B2F808E003E0644A644C12782270E88889
:1038E000704580F03F8162490D784028844645F05C
:1038F000020E28BF4FF0400C04EB0C0309EBCE0284
:10390000029301235460CCEB00004FEA0C480022E4
:103910000193C8245EE6554C4FF0020E227062708F
:10392000DDE7B1F5A06F7FF47CAF012300220193A6
:103930003DE642F221329142F7D072E76A88002ACE
:103940007FF46FAF3A48CDF804E08900084401786D
:1039500021F0020101702AE600F0A8F9002800F029
:10396000EF8008303D4AC4F88400C4F8802000F09D
:103970009DF9002800F0DE800830374AC9F88C0035
:10398000C9F8882038E700F091F9002800F0C080DD
:103990000830324AC8F84400C8F8402000F086F9E0
:1039A000002800F0AF8008302B4AC9F84C00C9F855
:1039B000482008E700F07AF9002800F0CD800830B0
:1039C000264AC9F82400C9F8202000F06FF9002821
:1039D00000F0BC800830204AC9F82C00C9F8282023
:1039E000E3E600F063F9002800F09E8008301B4AEF
:1039F000C8F86400C8F8602000F058F9002800F00A
:103A00008D800830144AC9F86C00C9F86820E7E6D0
:103A1000C86B083800F06AF904E5486B083800F014
:103A200065F9F9E4C86A083800F060F9EEE400BF0F
:103A3000C020074080200740D02B0100C420074051
:103A400085CAFF1FC8200740CC200740D020074070
:103A50000080FF1F94200740C800400088004000FD
:103A600019CAFF1FD42B010090CAFF1F88CAFF1F6D
:103A700084CAFF1F606A083800F038F9C0E4C86FD4
:103A8000083800F033F9FDE4486F083800F02EF9EB
:103A9000F2E4C86E083800F029F9E7E4486E083807
:103AA00000F024F9DCE4C86D083800F01FF9D1E417
:103AB000486D083800F01AF9C6E4C86C083800F000
:103AC00015F9BBE4486C083800F010F9B0E4D1F8FF
:103AD0009C00083800F00AF9ECE4D1F894000838AA
:103AE00000F004F9E0E4D1F88C00083800F0FEF8AA
:103AF000D4E4D1F88400083800F0F8F8C8E44FF0B6
:103B0000020EECE62A78C9F8480001322A705AE61B
:103B10002A78C8F8400001322A703FE72A78C9F8AD
:103B2000680001322A705BE62A78C8F8600001322A
:103B30002A7061E72A78C9F8880001322A705BE6AA
:103B40002A78C4F8800001322A7010E72A78C9F870
:103B5000280001322A7028E62A78C9F820000132AC
:103B60002A7032E7BEF1400FF44628BF4FF0400CF8
:103B700004EB0C0302930123CCEB0E004FEA0C483C
:103B80000022019318E500BFF8B500F0BFFD294BF6
:103B900029482A4C2A4F2B4DDFF8BCC0DFF8BCE087
:103BA000294E00221A605A609A60DA601A615A61DE
:103BB0009A61DA611A625A629A62DA621A635A6325
:103BC0009A63DA631A645A649A64DA641A655A6505
:103BD0009A65DA651A665A669A66DA661A675A67E5
:103BE0009A67DA67C3F880200168C3F8842041F43B
:103BF00080210160C3F307212170C3F307401349FB
:103C000038701B0E2B70FF238CF80030104D8EF88F
:103C1000003010480B700123337084F86420702644
:103C20004FF40074102207F82C3C2E70046081F8C9
:103C3000F820F8BD0080FF1F348004409C2007401E
:103C4000B0200740B42007409420074010200740D0
:103C500049E400E008E100E08020074088200740B8
:103C600008B500F0CBF808BD08B500F095F808BD20
:103C700008B500F065F808BD08B500F0B1F808BD5A
:103C800008B500F07BF908BD08B500F04DF908BD96
:103C900008B50846114600F0CBF808BD08B508463F
:103CA00000F036F908BD00BF704700BF72B60D4B7B
:103CB0001A68B2FA82F30B2B02D962B60020704761
:103CC0004FF00041D94022EA010206490A6062B67B
:103CD00003EBC303DA000449881800238B504360C8
:103CE000704700BF1489FF1FBC83FF1F08B50F4B2F
:103CF000C31A0F4AA2FB03231B090B2B14D80D4A2E
:103D000012783AB10C4A127812F0FF0F02D0FFF786
:103D100029F908BD4FF0004222FA03F372B6074AB0
:103D200011680B43136062B608BD00BFBC83FF1F60
:103D3000398EE33885CAFF1F90CAFF1F1489FF1F01
:103D400010B5134B1B6853B9124B1B7813F0FF0FC0
:103D500018D00320FFF7D2F80D4B1860A8B10C4B18
:103D6000186843885A1C03441C7A03889A4206D375
:103D7000FFF7BCFF0022064B1A60204610BD4280B0
:103D8000204610BD4FF0FF3010BD4FF0FF3010BD8A
:103D9000A4CAFF1F90CAFF1F08B50F4B1B6853B979
:103DA0000E4B1B7813F0FF0F0CD00320FFF7A6F883
:103DB000094B186048B1084B1B684BB15A88134433
:103DC000187A08BD4FF0FF3008BD4FF0FF3008BD36
:103DD0004FF0FF3008BD00BFA4CAFF1F90CAFF1FED
:103DE000044B9888044B1B681BB11A885B88D31A54
:103DF00018447047D8CFFF1FA4CAFF1F08B50A4B4D
:103E00001B7813F0FF0F0ED0084B186820B1FFF796
:103E10006DFF0022054B1A600320FFF76FF810B109
:103E2000FFF764FFF8E708BD90CAFF1FA4CAFF1F91
:103E3000F8B504460F460122304B1A700E4656E084
:103E40002F4B1B685BBB00252E4B1B7813F0FF0F1D
:103E500005D10022294B1A704FF0FF30F8BD042025
:103E6000FFF76AF807280AD80122244B1A70FFF7D7
:103E70001DFF234B186090B90022204B1A700135AA
:103E8000B5F50C4F02D8204B1B782BB101221E4BED
:103E90001A704FF0FF30F8BD00F0C6F8D4E70022EA
:103EA000194B1A70164B19684888C0F140039E429E
:103EB00000D2334601F10802024418444880F61A41
:103EC00004E0237813702B46013201345D1E002B71
:103ED000F7D14B883F2B07D940230B800420FFF7F5
:103EE000A5F80022064B1A600522084B1A70002E16
:103EF000A6D10022014B1A703846F8BD99CAFF1F9F
:103F00009CCAFF1F90CAFF1FA0CAFF1F98CAFF1FAD
:103F100000B583B002AB03F8010D01211846FFF78D
:103F200087FF03B05DF804FB08B50122104B1A703F
:103F3000104B1B6893B9104B1B7813F0FF0F09D07F
:103F40000420FEF7F9FF072804D8FFF7AFFE094B5E
:103F5000186018B90020064B187008BD054B1B6887
:103F60005888C0F140000022014B1A7008BD00BF04
:103F700099CAFF1F9CCAFF1F90CAFF1F144B1B78D2
:103F800013F0FF0F23D010B50122124B1A70124B01
:103F9000196851B10024114B1C704B880B80042010
:103FA000FFF744F80C4B1C600DE0FFF77FFE014665
:103FB00030B10022094B1A700420FFF737F802E0F5
:103FC0000122064B1A700022024B1A7010BD704776
:103FD00090CAFF1F99CAFF1F9CCAFF1F98CAFF1FE4
:103FE00008B50E4B1B7813F0FF0F16D10C4B196858
:103FF00041B14B880B800420FFF718F80022084BD2
:104000001A6008BDFFF752FE014618B10420FFF701
:104010000DF808BD0122034B1A7008BD99CAFF1F95
:104020009CCAFF1F98CAFF1F234B1B78002B42D14D
:1040300010B50122204B1A70FFF7D2FE08B1FFF72E
:1040400033FE00F09FF908B100F0DCF800F03AFA16
:1040500008B100F0D9F800F0D5FA08B100F0D6F8B0
:104060000022154B1A70EFF305831BBBEFF310838F
:1040700072B6124A106810B9E3B962B610BD104AA0
:10408000127812B1B3B962B610BD01210C4A117099
:1040900042690A490A6012B10021916102E00021DF
:1040A000084A116003B962B60024447783689847D0
:1040B000034B1C7010BD7047A9CAFF1FBCCAFF1F6D
:1040C000C0CAFF1FB8CAFF1F08B5EFF3108272B64F
:1040D0000B4B186880B1436909490B6013B100218B
:1040E000996102E00021074B196002B962B6002312
:1040F000437783689847E8E702B962B608BD00BF16
:10410000ACCAFF1FB0CAFF1F08B5FFF7DDFF08BD2F
:104110001C4B1B6823B98360C3601A4B18602DE0E9
:1041200001681A6891420AD283600022C260D86096
:1041300001681A68521A1A60124B18601EE09A68D9
:10414000A2B119680268521A02609B6819688A4213
:10415000F5D28360DA68C260D860C2689060016896
:104160001A68521A1A6002230375704719680268A8
:10417000521A026000228260C360986002230375B5
:10418000704700BFB4CAFF1F10B5174B1C68D4B1ED
:10419000236813B1013B236015E0A3680BB1002233
:1041A000DA60114A136000212175206903681B68D9
:1041B0002246984763681BB123602046FFF7A8FF9B
:1041C000094B1C68E3E7EFF3108372B6074A1068E7
:1041D0000021116003B962B620B18468FFF798FF2F
:1041E0002046F9E710BD00BFB4CAFF1FC4CAFF1FB5
:1041F00008B5034A136801331360FFF7C5FF08BD14
:10420000ACC9FF1F704700BF704700BF704700BFB9
:104210006022434B1A70E12201331A70414B1B7824
:10422000082B10D1012203F1804303F56C331A608F
:1042300013233D490B6001F5FF2101F2FC710A6077
:104240003A4A13602CE00A2B0DD11922384B1A6020
:10425000132335490B6001F5FF2101F2FC710A605F
:10426000324A13601CE00C2B0DD11522304B1A6022
:1042700012232D490B6001F5FF2101F2FC710A6048
:104280002A4A13600CE03D22294B1A60122326496A
:104290000B6001F5FF2101F2FC710A60234A1360F3
:1042A000244B1B7833B10123234A136002F500220B
:1042B000136005E00023204A136002F5002213601A
:1042C0001E4B1B78012B06D880231D4A136002F574
:1042D0000022136020E0042B06D88423184A1360C0
:1042E00002F50022136017E0082B06D88523144A34
:1042F000136002F5002213600EE0102B06D886230F
:104300000F4A136002F50022136005E087230C4A70
:10431000136002F50022136001220A4B1A707047E5
:10432000004007401889FF1F0CB003400CB00B4041
:1043300008B00340C9CAFF1F20B003401989FF1FFE
:1043400024B00340C8CAFF1F0A4A136843F48053CD
:104350001360094B1B781BB18022084B1A7002E0D6
:10436000C022064B1A7080F30C0000B2044B188078
:10437000704700BF2C800440C9CAFF1F21C00C40F9
:1043800000C00C40064B1B78DBB2064A1078C0B266
:10439000834201D3181A70471B1A03F1400070477B
:1043A00054CBFF1FD1CAFF1F30B43C4B1B7913F015
:1043B000300F32D072B6394B9A7D02F0FF032AB922
:1043C000364BDA7940225A7462B626E062B6344A35
:1043D0001078C0B2334A1578EDB2304AD279D1B2F2
:1043E000421C3F2A00D90022AA4202D02E4CA154DE
:1043F0001046013B13F0FF03EFD1C3B2284A1370FC
:104400002A4B1B684BB1A84201D3401B01E0401B63
:104410004030272801DD01221A70204BDB78DBB207
:1044200013F0800F25D01D4A127912F0800F20D092
:104430001F4A1478E4B21F4A1278D2B2A2420DD0B9
:1044400001323F2A00D90022144908791A48805CB9
:10445000C0B2C871097DC9B20729EFD9D2B21549D6
:104460000A700E4A127912F0800F02D07C210B4A9A
:10447000D17013F0400F0ED0084B1B7913F0400F92
:1044800009D000220D4B1A700D4B1B6803B11A7036
:104490003C22024BDA7030BC704700BF00A00640DF
:1044A00054CBFF1FD1CAFF1F14CBFF1FCCCAFF1F65
:1044B0005CCBFF1F55CBFF1FD4CAFF1FD0CAFF1F05
:1044C00058CBFF1F064B1B78DBB2064A1078C0B2F0
:1044D000834201D3181A70471B1A03F1400070473A
:1044E000D0CBFF1F65CBFF1F30B43C4B1B7913F0C3
:1044F000300F32D072B6394B9A7D02F0FF032AB9E1
:10450000364BDA7940225A7462B626E062B6344AF3
:104510001078C0B2334A1578EDB2304AD279D1B2B0
:10452000421C3F2A00D90022AA4202D02E4CA1549C
:104530001046013B13F0FF03EFD1C3B2284A1370BA
:104540002A4B1B684BB1A84201D3401B01E0401B22
:104550004030272801DD01221A70204BDB78DBB2C6
:1045600013F0800F25D01D4A127912F0800F20D051
:104570001F4A1478E4B21F4A1278D2B2A2420DD078
:104580000132272A00D90022144908791A48805C90
:10459000C0B2C871097DC9B20729EFD9D2B2154995
:1045A0000A700E4A127912F0800F02D07C210B4A59
:1045B000D17013F0400F0ED0084B1B7913F0400F51
:1045C00009D000220D4B1A700D4B1B6803B11A70F5
:1045D0003C22024BDA7030BC704700BF00B006408E
:1045E000D0CBFF1F65CBFF1F90CBFF1F60CBFF1F02
:1045F000D8CBFF1FD1CBFF1F68CBFF1F64CBFF1FA2
:10460000D4CBFF1F064B1B78DBB2064A1078C0B232
:10461000834201D3181A70471B1A03F140007047F8
:104620004CCCFF1FE1CBFF1F2E4B1B7913F0200F4B
:1046300022D02C4BDB79D9B22B4B1B7801333F2B8B
:1046400000D90023294A1278D2B2934204D0284AD2
:10465000D154DAB224490A70264A116861B1264A57
:104660001278D2B2934201D39B1A01E09B1A4033D5
:10467000272B01DD01230B701A4BDB78DBB213F023
:10468000800F1CD0174A127912F0800F17D01B4AE6
:104690001178C9B2184A1278D2B2914203D16C2172
:1046A000104AD1700BE00132272A00D900221449A8
:1046B000895CC9B20B48C171D2B20F490A7013F0BC
:1046C000400F0ED0074B1B7913F0400F09D000228A
:1046D0000C4B1A700C4B1B6803B11A702C22014B47
:1046E000DA70704700C006404CCCFF1FE1CBFF1FC3
:1046F0000CCCFF1FDCCBFF1F4DCCFF1F54CCFF1F8A
:10470000E4CBFF1FE0CBFF1F50CCFF1F72B61A4B4C
:1047100070221A704121194A11700F21013A11704B
:1047200080221A70144B1B7813F0800FFAD000B55A
:1047300085B0134B186862B6124B984202D800EB52
:10474000800358000A2201A9FEF7C2F8002309E0FD
:1047500004AA1A4412F80C1C31B10B4A02EB4302B2
:1047600051800133092BF3D901335B00064A1370E2
:1047700005B05DF804FB00BF0000024007000240E6
:10478000080002407F969800A889FF1F0B4601464B
:10479000184609F09DBA00BF90F8392090F838000B
:1047A000101A704790F8383090F83920934205D2AB
:1047B0005A1C80F838200344187E70474FF0FF30B1
:1047C000704700BF90F8383090F83920934202D2F9
:1047D0000344187E70474FF0FF307047704700BFAA
:1047E000B0F85E307BB190F85D30202B03D9012307
:1047F0000371002070475A1C80F85D20184480F82F
:104800003B10012070470020704700BF38B5B0F85A
:104810005E30BBB10546144690F85D30C3F121020D
:10482000A24202D201202871144605F13B00224623
:104830001844FDF759FF95F85D30234485F85D3045
:10484000204638BD002038BD43691A6812685B688D
:104850001A4213D00A4B994203D8036928225A708E
:1048600009E0084B994203D8036919225A7002E003
:1048700003690A225A70036903229A71704700BFC4
:104880007F1A06003F420F0070B50446002380F8EF
:10489000383080F8393080F85C3080F85D3080F84E
:1048A0005E304366836680F85F30456929680E682C
:1048B0006A6832430A6002699370426990F8613015
:1048C0001344197A114A02EBC10149685B7B1B0250
:1048D00003F4E06343F064030B60416990F86230D5
:1048E0000B44997C02EBC1025268DB7D1B0203F48E
:1048F000E06343F0640313600549FFF7A5FF2369F4
:1049000020225A71236980229A7070BD982A010072
:10491000A086010010B50269D378DBB213F0100F46
:1049200005D01021D17013F0400F00F081800446B3
:1049300013F0400F2DD013F0040F1BD000233D4A7D
:10494000137080F85D30436E03B1984794F85D3082
:104950002BB9012384F85D30002384F83B302369B0
:10496000D0229A70236994F83B201A71012384F8AD
:104970005C300AE001222F4B1A70002380F8393096
:104980000369C0229A7003691B7923690222DA70D5
:1049900010BD0269917811F0100F1BD013F0010FB8
:1049A00013D190F85C3090F85D108B4207D2591CFF
:1049B00080F85C10034493F83B30137101E000234E
:1049C00013712369D0229A702FE0C023937003697A
:1049D0001B792AE0002380F86030174B984209D1F8
:1049E000426990F86130134403221449187AFEF7A3
:1049F00067F80BE0124B984208D1426990F8613099
:104A0000134403220F49187AFEF75AF823691B79D9
:104A1000DBB294F839201F2A07D80649097821B15A
:104A2000511C84F839102244137623690222DA706B
:104A300010BD00BF55CCFF1FC089FF1FA94A000051
:104A40002C8AFF1FB94A000010B504460369DB78C1
:104A500013F0200F0FD1426990F861301344187A97
:104A6000FDF764FFA36EF3B1002284F8382094F8B8
:104A70003900984710BD90F860300133DBB280F800
:104A80006030012B04D890F85F301BB9012302E09D
:104A9000012300E0002333B1626994F861301344CC
:104AA000187AFDF743FF10BD08B50248FFF7CCFFA9
:104AB00008BD00BFC089FF1F08B50248FFF7C4FF4B
:104AC00008BD00BF2C8AFF1F2DE9F04182B00646C9
:104AD000334B1B680093009F00213269D37813F099
:104AE000200F59D02E4B1B680193019BDB1B0F2B12
:104AF0004AD9002948D1726996F8613013440521DA
:104B0000187AFDF7A1FF726996F86130134493F8A3
:104B1000128001214046FDF797FF0025082D0FDC8C
:104B200000214046FDF75EFF78242346013BFDD17E
:104B300001214046FDF756FF013CFDD10135EDE76F
:104B4000726996F861301344197A164A02EBC10172
:104B500049685B7B1B0203F4E06343F064030B6072
:104B6000716996F862300B44997C02EBC10252687D
:104B7000DB7D1B0203F4E06343F064031360F02366
:104B8000013BFDD10121A8E7102BA6D90020907090
:104B9000336980229A7000E0012002B0BDE8F08104
:104BA000ACC9FF1F982A010030B585B004460D46F8
:104BB00003691222DA7003699A7812F0200F02D08A
:104BC000B4229A7009E0FFF77FFF00286AD0002323
:104BD00084F85F302369B0229A70344B1B680093CD
:104BE00000992269D37813F0200F0DD12F4B1B6849
:104BF0000193019B5B1A042BF3D900239370236963
:104C000080229A7004204EE0002094F85D30984293
:104C10003CD22369221892F83B201A71234B1B685F
:104C2000029302992269D378DBB213F0020F10D1FC
:104C300013F0200F0DD01D4B1B680393039B5B1AD1
:104C4000052BEFD900239370236980229A700420EA
:104C500029E00223D3702269D378DBB213F0100F5E
:104C600003D080239370042014E013F0200F03D1AD
:104C70008023937004200DE013F0010F03D038B9A6
:104C80000220012506E00130C0B2BEE7002001E0AD
:104C90000320012515B1236980229A70002384F82E
:104CA0005E3000E0042005B030BD00BFACC9FF1F7E
:104CB00008B50248FFF72EFE08BD00BFC089FF1FE0
:104CC00008B50248FFF726FE08BD00BF2C8AFF1F6B
:104CD0002DE9F04F85B006460D46114600921F465D
:104CE000BDF93830BDF83C000190C2EB0308B8F1C3
:104CF000000FB8BFC8F10008C5EB0709B9F1000FF4
:104D0000B8BFC9F10009C84505DD3A461F4613463C
:104D10002A460D460092BD4205DD009A00931346D7
:104D20002A463D4617467A1B92B2039214B2009966
:104D3000C1EB030ABAF1000FB8BFCAF1000A04EBD5
:104D4000D4746410994202DA0123029302E04FF016
:104D5000FF330293BD4223DCC84508DD3368D3F836
:104D600018B0019B2A4600993046D84707E03368BF
:104D7000D3F818B0019B009A29463046D847CAEBB1
:104D80000404A3B21CB2002C07DA009A02990A4468
:104D900012B20092039AD41824B201352DB2D9E789
:104DA00005B0BDE8F08F00BF704700BF10B50468C4
:104DB0002469A04710BD00BF30B583B00468A46B60
:104DC000BDF818500095A04703B030BD30B583B092
:104DD0000468E46BBDF818500095A04703B030BDDF
:104DE00030B583B00468246CBDF81C500195BDF942
:104DF00018500095A04703B030BD00BF704700BFFA
:104E00002DE9F04182B005460E4617461C46036860
:104E10005B6998472B68D3F828803C44013C24B256
:104E2000BDF820300193009433463A463146284677
:104E3000C0472B68DB6A2846984702B0BDE8F0817E
:104E40002DE9F04182B004460E4617461D46036820
:104E50005B6998472368D3F828807319013BBDF834
:104E60002020019200971BB23A4631462046C047A7
:104E70002368DB6A2046984702B0BDE8F08100BF96
:104E80002DE9F04F83B005460E4692461F46BDF908
:104E90003090BDF8348003685B6998473446F31955
:104EA0009C420CDA2B68D3F820B0CDF800804B463A
:104EB000524621462846D847013424B2EFE72B68F2
:104EC000DB6A2846984703B0BDE8F08F10B582B082
:104ED00003681C6CB0F90A30B0F90C200191009203
:104EE00000221146A04702B010BD00BF2DE9F047D7
:104EF00082B005460E469046BDF92870BDF82C904C
:104F0000994210D1BA4201DDB84617462B689C6B16
:104F1000C8EB07030133CDF800901BB2424631467F
:104F20002846A04724E01C46BA420FD1994201DD31
:104F300026460C462B68DF6BA31B0133CDF800908F
:104F40001BB2424631462846B84711E003685B6908
:104F500098472B68D3F828A0CDF8049000972346F3
:104F6000424631462846D0472B68DB6A2846984798
:104F700002B0BDE8F08700BF2DE9F04782B00446DB
:104F80008A4616461D46BDF92880BDF82C70036878
:104F90005B6998472368D3F8249000972B463246E4
:104FA00051462046C8472368D3F8249006EB0802F0
:104FB000013A00972B4612B251462046C847236853
:104FC000D3F8209000974346324651462046C847C2
:104FD0002368D3F820900AEB050101390097434676
:104FE000324609B22046C8472368DB6A2046984704
:104FF00002B0BDE8F08700BF01F00301017603298C
:1050000010D8DFE801F002090209B0F90630438147
:10501000B0F9083083817047B0F908304381B0F9A6
:1050200006308381704700BF704700BF30B4002452
:1050300004710A4D0560C18002814181828104763C
:10504000C48104820122C27582754FF6FF7181828C
:10505000418242768476C46130BC7047942C010052
:105060002DE9F04F85B08246019100929946BDF935
:105070003860BDF93C300393BDF84030029316F11F
:10508000070801D508F107084FEAE808DAF8003008
:105090005B695046984700273D46039B9F422CDAA8
:1050A0000023B34222DA9CB214F0070F02D06D0045
:1050B000EDB20AE008FB07F11A46002B00DADA1D10
:1050C00042F3CF020A4419F8025015F0800F0AD0BB
:1050D000DAF80030D3F818B0019BE118029B009A6F
:1050E00009B25046D847013423B2DAE701373FB25C
:1050F000009B01331BB20093CFE7DAF80030DB6A84
:105100005046984705B0BDE8F08F00BF2DE9F04F3D
:105110008FB08246069107929946BDF86030089399
:10512000BDF864709DF8683003939DF86CB0C26957
:10513000002A40F0C480B0F90A308B4240F3458128
:10514000B0F90C300798834240F33F81039B03EB97
:10515000430253000B44012B00F1378100EBCB03DA
:10516000012B00F132819AF81A3033B9B9F1AF0F3F
:1051700003D909F101095FFA89F9DAF800305B69AE
:10518000504698474FF00008CDF81090039E5B46BC
:10519000BB461F46B8F1040F62DC049B03EB83039C
:1051A00043448B4AD55C0024072C54DC15F0010FD6
:1051B00025D0012E10D1012F0ED1DAF80030D3F80E
:1051C0001890069B08EB0301079BE218089B12B29C
:1051D00009B25046C8473AE0DAF80030D3F81C90DC
:1051E000069B08FB0631079B04FB0732089B0193D3
:1051F0000097334612B209B25046C84727E0089BD1
:105200005B4524D0012E10D1012F0ED1DAF80030E9
:10521000D3F81890069B08EB0301079BE2185B4646
:1052200012B209B25046C84711E0DAF80030D3F89C
:105230001C90069B08FB0631079B04FB0732CDF848
:1052400004B00097334612B209B25046C847013441
:1052500064B26D08A8E708F101084FFA88F899E7E9
:105260003B465F469B46089BBB4222D0039B012BDB
:105270000ED1BBF1010F0BD1DAF800301C6A069990
:10528000053100970823079A09B25046A04710E05D
:10529000DAF80030DC69039800EB8001069B1944C2
:1052A0004FEACB03019700930346079A09B2504691
:1052B000A047DAF80030DB6A5046984785E0137A59
:1052C000C3EB0903DBB2506800EBC3011268049220
:1052D00030F8337091F80280CB780B9391F9053058
:1052E0000C9391F906300D93039B012B02D8BBF16F
:1052F000010F06D9BDF930300993BDF934300A9356
:1053000002E000230A930993DAF800305B69504603
:10531000984700231C4699460B9A914550D2002588
:10532000CDF81490454544D25E1CF6B213F0070F39
:1053300003D17B1C049AD45D9FB214F0800F32D04D
:10534000039B012B15D1BBF1010F12D1DAF800300C
:10535000D3F818900C9B069A991829440D9B079A2C
:105360009A18059B1A44089B12B209B25046C847C6
:1053700019E0DAF80030D3F81C90099B5919039B07
:1053800011FB03F1069A11440A9A0598024412FB94
:105390000BF20798024408980190CDF800B012B2C1
:1053A00009B25046C8476400E4B20135EDB2334655
:1053B000B8E7DDF8149009F101025FFA82F9ABE772
:1053C000DAF80030DB6A504698470FB0BDE8F08F3E
:1053D000E42C0100F0B585B00446C369002B37D139
:1053E0000A2906D1C381C27D038A03EBC20303826B
:1053F00079E00D2977D0437E8BB1B0F90E00A37D03
:1054000003EB43035A000244B4F90A309A4206DD22
:105410000023E381E27D238A03EBC2032382B4F9F4
:105420000E00B4F91020638AA58AA67DE77D039754
:105430000296019500930B4601462046FFF766FE53
:10544000A37D03EB43035A00E3891344E3814AE05D
:105450000A2908D10022C281C27D997A038A01FB00
:10546000023303823FE00D293DD01A7A91423AD3AC
:10547000587A814237D88A1AD2B25D6805EBC205E4
:10548000AA78E8784AB340B395F90560607E88B1A0
:10549000B4F90E70A07D324402FB0072B4F90A0028
:1054A000824207DD0022E281E27D987A238A00FBB6
:1054B00002332382B4F90E00B4F91020638AA68A5D
:1054C000A77D94F817E0CDF80CE0029701960093C1
:1054D0000B4601462046FFF719FEA27D2979E38994
:1054E00001FB0233E381012005B0F0BD09B90121C0
:1054F000FFE7817502B90122C275704708B50A46F7
:10550000FFF7F4FF08BD00BF10B400290BDBB0F9B2
:105510000A408C4209DD002A09DBB0F90C409442B4
:1055200007DD012406E0002404E0002402E000245A
:1055300000E00024002C67D0047E022C0DD0032C48
:1055400016D0012C1ED151404A40514009B2B0F949
:105550000640611A013909B214E0B0F90640611A37
:10556000013909B2B0F90840A21A013A12B209E0B1
:1055700051404A4012B2514009B2B0F90840A21A53
:10558000013A12B2012B03D0B3B1022B29D03BE078
:10559000846AB0F906001346002A00DAD31D43F3EB
:1055A000CF0300FB031102F00702012303FA02F20A
:1055B000635C1A43625427E0846AB0F9060013461C
:1055C000002A00DAD31D43F3CF0300FB031102F0DE
:1055D0000702012303FA02F2635C23EA0202625427
:1055E00012E0846AB0F906001346002A00DAD31DDF
:1055F00043F3CF0300FB031102F00702012303FA78
:1056000002F2635C5A40625410BC704738B50446DD
:105610001D46FFF70BFD0F4B23600023236205B9E6
:105620000D4D65620023A362FF2384F82F3084F8B8
:10563000303084F8313084F832309DF9103084F8FD
:105640003330064B6365059BA365069BE3652046E7
:1056500038BD00BF04320100C089FF1F00000238BE
:1056600010B50446044B0360806A18B108F070FB63
:105670000023A362204610BD0432010070B5436AC6
:10568000D3B10D46044690F82C20520083F83B20FD
:10569000012683F85E6083F85D60406A03681B68DA
:1056A00000219847606A03681B682946984731467D
:1056B000606AFFF779FA70BDC26B1368C46C23EAA5
:1056C00004031360046A5CB123684FF00042DA629D
:1056D000236859632368DA6A002AFBDA9B6B70BD82
:1056E0008023D3B1194205D0446B2568426C2A430C
:1056F000226005E0446B2268456C22EA05022260C4
:10570000846B2568826C2A432260846B2268856CD6
:1057100022EA050222605B08E3E770BD70B504462B
:105720000D46406A18B1A16DFFF78EF83AE0236A82
:10573000002B31D0626DD97AF9B172B6D97A11F0F5
:10574000010F05D02D480668D96831409961016084
:10575000D97A11F0020F05D029480668196931403D
:10576000D9610160D97A11F0040F05D02548066887
:10577000596931401962016062B61968C86890427F
:105780000AD0214808601968CA60196842F080424E
:105790000A611B681D4A1A60226C1368216D23EA96
:1057A000010313600DB1A72100E0A6212046FFF7F9
:1057B00065FF606A18B1E16DFFF746F870BD226CB5
:1057C0001168236D0B431360236AABB1DA7A9AB187
:1057D00012F0010F02D099690D4A1160DA7A12F0C5
:1057E000020F02D0D9690B4A1160DA7A12F0040F65
:1057F00002D01A6A084B1A6070BD00BF80E100E059
:1058000084E100E088E100E001403F0000003F80CB
:1058100000E100E004E100E008E100E02DE9F843E8
:1058200004460F461646436A002B3AD090F82C20C7
:10583000520083F83B20012583F85E5083F85D50C9
:10584000406A03681B6800219847731E5FFA83F85B
:105850000EB31F2D13D90121606AFFF7A5F9636A02
:1058600094F82C20520083F83B20012583F85E50E9
:1058700083F85D50606A03681B6800219847606A7E
:1058800003681B6807F10109397898470135EDB2C3
:1058900046464F46D9E70121606AFFF785F9BDE822
:1058A000F883C26B1368C16C23EA0103136001E043
:1058B00006462F46701EC0B2002E2DD07D1C3E78AD
:1058C000216A59B10B684FF00042DA620B685E63DF
:1058D0000B68DA6A002AFBDA9B6BE9E78023002B6E
:1058E000E6D01E4205D0616B0F68626C3A430A60D5
:1058F00005E0616B0A68676C22EA07020A60A16B27
:105900000F68A26C3A430A60A16B0A68A76C22EA8E
:1059100007020A605B08E2E7BDE8F88308B50346C2
:10592000806AB3F90620B3F90830073300D507338E
:10593000DB1003FB02F2002108F076FD08BD00BF7A
:105940002DE9F04184B004460F4615461E469DF8E9
:105950002880836A7BB9B0F90600B4F908300733B0
:1059600000D50733DB1003FB00F008F0E9F9A06273
:1059700018B9012302E0002300E00023002B40F0CF
:105980009A812046FFF7CAFFB4F90820202A16DDC5
:10599000B4F90610523901EBD171403A02EBD272E0
:1059A000012302934023019352230093A34B42F31C
:1059B0004F0241F34F012046FFF752FB15E0B4F9C7
:1059C0000610733901EBD171203A02EBD272012338
:1059D00002932023019373230093994B42F34F02C8
:1059E00041F34F012046FFF73BFB84F82D70606ABE
:1059F00088B12DB9B4F90830202B03D13C2502E041
:105A00006DB200E03D2584F82C50B8F1000F42D073
:105A1000FEF73AFF3FE0012194F83100FDF714F85A
:105A2000012194F83200FDF70FF894F93120854BED
:105A300053F83220E2630122E26494F9321053F801
:105A40003130236422651A6842F001021A60206A2C
:105A500028B1B8F1000F1ED005F0AAFE1BE001210D
:105A600094F82F00FCF7F0FF012194F83000FCF7C8
:105A7000EBFF94F92F20734B53F83220626301221D
:105A8000626494F9301053F83130A363A2641A6849
:105A900022F001021A60E6B194F93300002818DB05
:105AA0000121C0B2FCF7D0FF012194F83300FCF7CC
:105AB00099FF0120FDF7AEF9002194F83300FCF7BF
:105AC00091FF0A20FDF7A6F9012194F83300FCF7B5
:105AD00089FF606A18B1A16DFEF7B6FE3AE0236A4D
